:10000000CBC100000C940F240C94E4230C94B9236E
:100010000C948E230C9463230C9438230C940D239E
:100020000C94E222EAC10000E8C10000E6C1000031
:10003000E4C10000E2C10000E0C10000DEC1000038
:10004000DCC10000DAC10000D8C10000D6C1000048
:10005000D4C10000D2C10000D0C100000C9498228D
:10006000CCC100000C9462220C943822C6C100005E
:10007000C4C10000C2C10000C0C10000BEC1000078
:10008000BCC10000BAC10000B8C10000B6C1000088
:10009000B4C10000B2C10000B0C10000AEC1000098
:1000A000ACC10000AAC10000A8C10000A6C10000A8
:1000B000A4C10000A2C10000A0C100009EC10000B8
:1000C0009CC100009AC1000098C1000096C10000C8
:1000D00094C1000092C100000C9402220C94D8211B
:1000E0008CC10000084AD73B3BCE016E84BCBFFDEB
:1000F000C12F3D6C74319ABD56833DDA3D00C77FF8
:1001000011BED9E4BB4C3E916BAAAABE0000008090
:100110003F05A84CCDB2D44EB93836A9020C50B91F
:10012000918688083CA6AAAA2ABE000000803F004B
:100130004E414E494E495459494E46CDCCCC3D0ACC
:10014000D7233C17B7D13877CC2B329595E6241FAF
:10015000B14F0A000020410000C84200401C462068
:10016000BCBE4CCA1B0E5AAEC59D7400407A10F33B
:100170005A00A0724E18090010A5D4E80000E876D5
:1001800048170000E40B54020000CA9A3B0000002C
:10019000E1F505000080969800000040420F000045
:1001A00000A08601000000102700000000E8030006
:1001B0000000006400000000000A000000000001D0
:1001C00000000000002C76D888DC674F0823DFC1D0
:1001D000DFAE59E1B1B796E5E3E453C63AE651998B
:1001E0007696E8E6C28426EB898C9B62ED407C6FB4
:1001F000FCEFBC9C9F40F2BAA56FA5F490055A2A6B
:10020000F75C936B6CF9676DC11BFCE0E40D47FE76
:10021000F520E6B500D0ED902E030094357705006B
:1002200080841E080000204E0A000000C80C3333F2
:1002300033330F986E12831141EF8D2114893BE601
:100240005516CFFEE6DB18D1844B381BF77C1D908A
:100250001DA4BBE424203284725E228100C9F124F3
:10026000ECA1E53D277C3C3E5E2B3D3F2F5B5D3B9B
:100270002C2A225C0000002200250028002B002EE2
:10028000003100340002010000050108010B0100EB
:100290000020002300260029002C002F003200003F
:1002A00001000003010601090100000A0B02090C0C
:1002B0000D0E08070304010000000000000000000C
:1002C000000000000000000000000000000000002E
:1002D00000000000001211100000000000000000EB
:1002E000000000000000000000000000000000000E
:1002F000002100240027002A002D003000330001D7
:10030000010000040107010A010102102020080871
:100310001020401020408002010201080402010167
:100320000204081020408080402010080402018050
:1003300004020180402010080402010804020101A7
:1003400002040810204080010204081020408005AB
:10035000050505070508080808020202020A0A083E
:100360000804040404010101010101010103030364
:100370000303030303040707070C0C0C0C0C0C0C01
:100380000C0202020206060606060606060B0B0B08
:100390000B0B0B0B0B003A2411241FBECFEFD1E245
:1003A000DEBFCDBF00E00CBF2EE0A6E8B3E001C089
:1003B0001D92A232B207E1F713E0A0E0B2E0EEEB4B
:1003C000FDE600E00BBF02C007900D92A638B10712
:1003D000D9F711E0CCECD1E000E006C0219701098B
:1003E000802FFE010E948334CB3CD10780E00807B8
:1003F000A9F70E9435250C94DD3602CECF93DF930A
:10040000FC01828193819093910D8093900D848162
:100410009581A681B7818093920D9093930DA093BF
:10042000940DB093950D80859185A285B3858093B9
:10043000960D9093970DA093980DB093990DDF01B1
:100440001C96CF014996CAE9DDE02D912993A817A2
:10045000B907D9F7818D928D9093A80D8093A70D40
:100460008EE89DE0DF91CF9108950F931F93CF9376
:10047000DF93C091FF0DE0E0FEE0CD3211F0EFEF31
:10048000FDE08F0120E030E0A901D801DD918D0170
:1004900080ED8D0F8A3090F4AAE0B0E00E94E53143
:1004A0002D2FDD0F330B440B550B260F371F481F25
:1004B000591F2053310941095109E7CFA4E6B0E0A3
:1004C0000E94E531AB01BC01DF01819190ED980FF5
:1004D0009A30D0F38E3259F511968C91119790ED98
:1004E000980F9A3020F5082E000C990BC0972AE03F
:1004F000289F8001299F100D1124012E000C220B32
:10050000330B400F511F621F731F12968C9190ED99
:10051000980F9A3060F4082E000C990BC097092EA2
:10052000000CAA0BBB0B480F591F6A1F7B1FCD3253
:1005300039F470956095509541955F4F6F4F7F4F9F
:10054000CB01BA01DF91CF911F910F9108954F9286
:100550005F926F927F928F929F92AF92BF92CF9253
:10056000DF92EF92FF921F93CF93DF93CFEFDDE007
:10057000FE01C12CD12C7601119180ED810F8A30C2
:10058000A8F4AAE0B0E0A70196010E94E531C12ECF
:10059000110FDD08EE08FF08C60ED71EE81EF91E73
:1005A00080E3C81AD108E108F108E6CFC701B60117
:1005B00024E630E040E050E00E9461349B01AC0151
:1005C00060EA76E881E090E00E943F344B015C01F4
:1005D0009E01899190ED980F9A30D0F38E3221F5DB
:1005E000E901219680E1482E87E2582E612C712C7A
:1005F000A99180ED8A0F8A30B8F40A2E000CBB0B4B
:10060000D097A30192010E948B34860E971EA81EDC
:10061000B91EC301B2012AE030E040E050E00E9480
:10062000613429013A01E4CFC701B60124E630E084
:1006300040E050E00E94613460E472E48FE090E0BA
:100640000E943F346B017C01C501B4016D5F7F4F97
:100650008F4F9F4F26E030E040E050E00E94613431
:10066000C701B601620F731F841F951FDF91CF91E1
:100670001F91FF90EF90DF90CF90BF90AF909F9031
:100680008F907F906F905F904F9008950895DC0158
:10069000ED91FC910190F081E02D1994DB0114960D
:1006A0004D915C9115976D917C91DC01ED91FC91E0
:1006B0000280F381E02D1994AF92BF92CF92DF9226
:1006C000EF92FF920F931F93CF93DF936C017B0107
:1006D0008B01040F151FEB015E01AE18BF08C01798
:1006E000D10759F06991D601ED91FC910190F0810B
:1006F000E02DC6011995892B79F7C501DF91CF91BE
:100700001F910F91FF90EF90DF90CF90BF90AF902F
:100710000895FC01538D448D252F30E0842F90E007
:10072000821B930B541710F0CF96089501970895EC
:10073000FC01918D828D981761F0A28DAE0FBF2FB5
:10074000B11D5D968C91928D9F5F9F73928F90E00B
:1007500008958FEF9FEF0895FC01918D828D98177A
:1007600031F0828DE80FF11D858D90E008958FEFB7
:100770009FEF0895FC01918D228D892F90E0805C80
:100780009F4F821B91098F739927089581EF9BE0FA
:10079000F1DF21E0892B09F420E0822F08958EE813
:1007A0009CE0E8DF21E0892B09F420E0822F089506
:1007B000FC01A48DA80FB92FB11DA35ABF4F2C91D6
:1007C000848D90E001968F739927848FA689B789CD
:1007D0002C93A089B1898C91837080648C93938DC4
:1007E000848D981306C00288F389E02D80818F7D67
:1007F00080830895EF92FF920F931F93CF93DF931F
:10080000EC0181E0888F9B8D8C8D98131AC0E8894C
:10081000F989808185FF15C09FB7F894EE89FF891B
:100820006083E889F98980818370806480839FBFB9
:1008300081E090E0DF91CF911F910F91FF90EF90B9
:100840000895F62E0B8D10E00F5F1F4F0F731127C9
:10085000E02E8C8D8E110BC00FB607FCFACFE88905
:10086000F989808185FFF5CFCE01A2DFF2CFEB8D34
:10087000EC0FFD2FF11DE35AFF4FF0829FB7F89464
:100880000B8FEA89FB8980818062D0CFCF93DF9381
:10089000EC01888D8823B1F0AA89BB89E889F989A0
:1008A0008C9185FD03C0808186FD0CC00FB607FCCE
:1008B000F7CF8C9185FFF2CF808185FFEDCFCE0100
:1008C00077DFEACFDF91CF91089580E090E0892B28
:1008D00021F065DF81110E94000080E090E0892B0B
:1008E00049F080E090E0892B29F00E9400008111FE
:1008F0000E94000080E090E0892B49F080E090E0C9
:10090000892B29F00E94000081110E94000080E0E4
:1009100090E0892B21F03ADF81110C9400000895BA
:100920008150823108F05AC0E82FF0E08827E45661
:10093000FB4F8F4F0C948334BC04C004AE04B4044A
:10094000B804EE04C304C904CD04D304D704DB0403
:10095000E104E504EE04E904EF04F304809180006F
:100960008F77809380000895809180008F7DF9CFEC
:1009700080918000877FF5CF84B58F7784BD0895FF
:1009800084B58F7DFBCF8091B0008F778093B000CE
:1009900008958091B0008F7DF9CF809190008F777E
:1009A000809390000895809190008F7DF9CF809181
:1009B0009000877FF5CF8091A0008F778093A00073
:1009C00008958091A0008F7DF9CF8091A000877F4E
:1009D000F5CF809120018F77809320010895809139
:1009E00020018F7DF9CF80912001877FF5CFCF93B4
:1009F000DF93282F30E0F901E755FD4F8491F9018D
:100A0000E75FFC4FD491F901E15BFC4FC491CC232B
:100A100099F0811185DFEC2FF0E0EE0FFF1FE15719
:100A2000FD4FA591B491EC91ED2381E090E009F4A4
:100A300080E0DF91CF91089580E090E0FACF1F939E
:100A4000CF93DF93282F30E0F901E755FD4F8491D4
:100A5000F901E75FFC4FD491F901E15BFC4FC491D0
:100A6000CC23A1F0162F81115BDFEC2FF0E0EE0F0D
:100A7000FF1FEB58FD4FA591B4918FB7F894EC91FF
:100A8000111108C0D095DE23DC938FBFDF91CF9189
:100A90001F910895DE2BF8CFCF93DF9390E0FC01F8
:100AA000E75FFC4F2491815B9C4FFC01849188237C
:100AB000D1F090E0880F991FFC01E151FD4FA59105
:100AC000B491FC01EB58FD4FC591D491623071F4A3
:100AD0009FB7F8943C91822F809583238C93E88173
:100AE0002E2B28839FBFDF91CF9108958FB7F89465
:100AF000EC912E2B2C938FBFF6CF3FB7F8948091BB
:100B0000920390919303A0919403B091950326B51D
:100B1000A89B05C02F3F19F00196A11DB11D3FBF35
:100B2000BA2FA92F982F8827BC01CD01620F711D04
:100B3000811D911D42E0660F771F881F991F4A95FE
:100B4000D1F708958F929F92AF92BF92CF92DF928A
:100B5000EF92FF92D2DF4B015C0184E6C82ED12CCC
:100B6000E12CF12CCADF681979098A099B09683ED2
:100B7000734081059105B0F321E0C21AD108E10864
:100B8000F10888EE880E83E0981EA11CB11CC114E8
:100B9000D104E104F10431F7FF90EF90DF90CF90A2
:100BA000BF90AF909F908F9008952FB7F894609169
:100BB0008E0370918F0380919003909191032FBFCA
:100BC00008954F925F926F927F92AF92BF92CF92B1
:100BD000DF92EF92FF920F931F93CF93DF938C01DD
:100BE000EB015A01C090B90DD090BA0DE090BB0D49
:100BF000F090BC0D4090C10D5090C20D6090C30D9F
:100C00007090C40D8091F50D9091F60DA091F70DA7
:100C1000B091F80D8F3F2FEF9207A207B20779F03E
:100C2000C4DF2091F50D3091F60D4091F70D5091F4
:100C3000F80DDC01CB01821B930BA40BB50BF50166
:100C400080839183A283B38360E070E08AE794E4B9
:100C5000FFEFCF16F9ECDF06FAE9EF06FBE3FF063C
:100C600051F0C701B6010E94CF3020E034E244E7E2
:100C700059E40E94C832F8016083718382839383B0
:100C800060E070E08AE794E4FFEFCF16F9ECDF064E
:100C9000FAE9EF06FBE3FF0651F0C301B2010E943F
:100CA000CF3020E034E244E759E40E94C832688340
:100CB00079838A839B83DF91CF911F910F91FF905E
:100CC000EF90DF90CF90BF90AF907F906F905F904C
:100CD0004F90089508958FB7F894809187038FBF40
:100CE000089561E0FC018481AADE80918603811170
:100CF0001092860308958EBD00000DB407FEFDCF4F
:100D00008EB508958FEFF7CF0F931F93CF93DF9397
:100D1000EC014BDF8B01F6DF8F3F61F046DF601B9C
:100D2000710B6C177D07B8F380E0DF91CF911F91B5
:100D30000F91089581E0F9CF8CBD9DBD0895CF93AB
:100D4000DF93EC0180918603811108C081E08093DC
:100D5000860380912B0D90912C0DEEDF60E08C814D
:100D6000DF91CF916CCE8F929F92AF92BF92FF9204
:100D70000F931F93CF93DF93EC01F62E49015A0195
:100D80008E81882379F08F8198859C012F5F3F4F5A
:100D900038872F838230924010F4B4DFF4CFCE0135
:100DA000A0DF1E82CE01CBDF8CE291E0ADDF8F2D84
:100DB0008064A1DF08E110E0D501C401002E04C069
:100DC000B695A795979587950A94D2F794DF085022
:100DD0001109083F8FEF180779F785E9FF2021F007
:100DE00028E087E8F2128FEF86DF10E08BDF8A873A
:100DF00087FF04C01F3F11F01F5FF8CFDF91CF9135
:100E00001F910F91FF90BF90AF909F908F9008958A
:100E1000AF92BF92CF92DF92EF92FF920F931F9308
:100E2000CF93DF93EC016901C801820F931F8130DA
:100E3000924048F58E81882379F088819981AA8132
:100E4000BB8184179507A607B70731F48F81988572
:100E5000C816D90608F03CC0488359836A837B834F
:100E60008B85833039F089E0440F551F661F771F4B
:100E70008A95D1F79A01AB0161E1CE0174DF882335
:100E800081F083E08D83CE012CDF80E0DF91CF9174
:100E90001F910F91FF90EF90DF90CF90BF90AF9098
:100EA000089583DE5B012EDF8A878F3F59F47DDE54
:100EB0006A197B096D327140B0F38FE08D83CE01EA
:100EC00010DFE1CF8E3F81F418861F8281E08E8390
:100ED0008F8198858C159D0548F414DF8F81988546
:100EE000019698878F83F4CF8DE0E8CF6701E00EFD
:100EF000F11E08DFF60181936F01EE15FF05C9F7BA
:100F00008F819885080F191F18870F83898588237B
:100F100019F00115124090F08E81882379F08F81AD
:100F200098859C012F5F3F4F38872F8382309240F6
:100F300010F4E8DEF4CFCE01D4DE1E8281E0A6CF2D
:100F4000EF92FF920F931F93CF93DF93EC01790100
:100F500082E1411551056105710591F08B85833062
:100F600039F089E0440F551F661F771F8A95D1F726
:100F70009A01AB0168E1CE01F6DE882319F084E026
:100F80008D8328C08EEFB7DE87018EEFF81AF80147
:100F900081918F01B0DE0E151F05C9F78FEFABDE13
:100FA0008FEFA9DEAFDE8A878F71853079F488E50F
:100FB00092E0AADE882391F020E030E0A9016DE004
:100FC000CE01D1DE882361F084E1DACF81E18D8327
:100FD000CE0187DECE0185DE80E008C085E1D0CF7E
:100FE00091DE8111F1CFCE017CDE81E0DF91CF91E6
:100FF0001F910F91FF90EF900895CF93DF93809111
:101000008803882399F1C091EF0BD091F00B4091A8
:1010100000025091010260910202709103022FEED2
:1010200039E0CE018DDF811104C080E0DF91CF91E6
:1010300008954091890350918A0360918B037091C8
:101040008C03411551056105710571F02FEE39E0F2
:10105000CE0176DF882349F31092890310928A0328
:1010600010928B0310928C031092880381E0DECFE4
:101070008F929F92AF92BF92EF92FF920F931F9326
:10108000CF934B015C01C42F80910002909101022B
:10109000A0910202B091030288159905AA05BB052B
:1010A00039F1ABDF81110BC080E0CF911F910F911F
:1010B000FF90EF90BF90AF909F908F9008958FEE2C
:1010C000E82E89E0F82E00E012E030E020E0B501E3
:1010D000A4018091EF0B9091F00B9ADE882321F30D
:1010E0008092000290920102A0920202B09203024A
:1010F000409188034C2B4093880381E0D6CF8F9298
:101100009F92AF92BF92CF92DF92EF92FF92CF93D6
:101110002DE23DE03093F00B2093EF0B882309F490
:101120006BC040E060E070E0CB01A2DF81110BC03A
:1011300080E0CF91FF90EF90DF90CF90BF90AF9085
:101140009F908F9008958091AD0B8F7789F7809154
:10115000B90B9091BA0BA091BB0BB091BC0B84362C
:101160009105A105B10520F3C090B50BD090B60B49
:10117000E090B70BF090B80BC114D104E104F10476
:10118000B9F240E0C701B60173DF882389F280918C
:10119000FA099091FB098115924051F6A091FF093F
:1011A000AA2331F26091FD097091FE096115710564
:1011B00009F4BECF2091FC09222309F4B9CFA093F2
:1011C0004B0D20933D0D90E080E030E0E1E0F0E059
:1011D000C82FAF01082E02C0440F551F0A94E2F732
:1011E0002417350769F041E0480F019689309105D1
:1011F00079F74093460D9CCFC12CD12C7601C1CFFD
:101200008093460D2091050A3091060A50E040E097
:101210002115310541F42091130A3091140A4091AF
:10122000150A5091160A20933E0D30933F0D4093BE
:10123000400D5093410D46015701860E971EA11C8B
:10124000B11C80924C0D90924D0DA0924E0DB0921B
:101250004F0DE091000AF091010AF093520DE093D6
:10126000510DB0E00E94E531DC01CB01880D991DE4
:10127000AA1DBB1D8093530D9093540DA093550D43
:10128000B093560D25E0EE0FFF1F2A95E1F7E150D0
:10129000FE4FEF2FFF27E6958E0F9F1FA11DB11D5B
:1012A0008093470D9093480DA093490DB0934A0D3C
:1012B0008090020A9090030AB12CA12C8114910411
:1012C00041F480900F0A9090100AA090110AB090FB
:1012D000120AC81AD90AEA0AFB0AC80CD91CEA1C65
:1012E000FB1C04C0F694E794D794C794CA95D2F730
:1012F000C092420DD092430DE092440DF092450D04
:1013000085EFC8168FE0D806E104F10428F48CE0DC
:101310008093500D81E00DCF80E125EFC2162FEFB5
:10132000D206E104F104A0F380911B0A90911C0AFB
:10133000A0911D0AB0911E0A8093530D9093540DF5
:10134000A093550DB093560D80E2E2CF4F925F927D
:101350006F927F928F929F92AF92BF92CF92DF92C5
:10136000EF92FF920F931F93CF93DF93EC014230E4
:1013700051056105710590F480E0DF91CF911F91D7
:101380000F91FF90EF90DF90CF90BF90AF909F9024
:101390008F907F906F905F904F90089589859A8588
:1013A000AB85BC850196A11DB11D84179507A607C5
:1013B000B70710F3CB88DC88ED88FE888F898031F1
:1013C00009F042C0BB27A72F962F852F480159014E
:1013D0002A013B01C80ED91EEA1EFB1E80910002A5
:1013E00090910102A0910202B0910302C816D906A1
:1013F000EA06FB0699F58F898031B9F5B301A201A0
:10140000552766277727440F551F4151564FFA013C
:1014100091828082809188038160809388038A8989
:10142000823080F08D819E81AF81B8858C0D9D1DAD
:10143000AE1DBF1D8093890390938A03A0938B03F5
:10144000B0938C0381E099CFDB01CA01E7E0B69548
:10145000A79597958795EA95D1F7B8CF40E0C70152
:10146000B60106DE8111C7CF87CFB301A2014F7746
:10147000552766277727440F551F440F551F4151A5
:10148000564FFA0180829182A282B382C3CF8F929B
:101490009F92AF92BF92CF92DF92EF92FF920F9303
:1014A0001F93CF93DF93FC0181859285A385B4853B
:1014B0000196A11DB11D84179507A607B70770F403
:1014C00080E0DF91CF911F910F91FF90EF90DF901F
:1014D000CF90BF90AF909F908F900895838894880D
:1014E000A588B6888789803189F5BB27A72F962FD5
:1014F000852FE9016A017B018F01BC01CD01680DD7
:10150000791D8A1D9B1D8090000290900102A09081
:101510000202B090030286169706A806B90601F5E6
:10152000F8018789803109F5DD24EE24FF24F601D6
:10153000EE0FFF1FE151F64F80819181B0E0A0E0F6
:1015400088839983AA83BB8381E0BBCFDB01CA0177
:10155000C7E0B695A79597958795CA95D1F7C9CF56
:1015600040E086DD8111DCCFABCFE894C7F8DD2405
:10157000EE24FF24F601EE0FFF1FEE0FFF1FE151D7
:10158000F64F80819181A281B381BF70D9CF4F92F4
:101590005F926F927F92AF92BF92CF92DF92EF9263
:1015A000FF920F931F93CF93DF9300D01F92CDB77D
:1015B000DEB78C0149835A836B837C835901C12C2C
:1015C000D12C7601412C82E0582E612C712C49815E
:1015D0005A816B817C819E012F5F3F4FC80157DF8D
:1015E000882339F1F8018585A301920104C0220FF7
:1015F000331F441F551F8A95D2F7DA01C901C80E5F
:10160000D91EEA1EFB1E49815A816B817C81878924
:10161000803111F188EF9FEFAFEFBFE04817590716
:101620006A077B07A0F2F501C082D182E282F382D1
:1016300081E00F900F900F900F90DF91CF911F914D
:101640000F91FF90EF90DF90CF90BF90AF907F9081
:101650006F905F904F90089588EF9FEFA0E0B0E00B
:10166000DDCFCF93DF93FC012581222321F080E0A1
:10167000DF91CF910895EC018091500D803159F5A3
:1016800082E08583178A108E118E128E8091510D03
:101690009091520DB0E0A0E025E0880F991FAA1F9D
:1016A000BB1F2A95D1F7838B948BA58BB68B89E3CF
:1016B0009DE09C8F8B8F81E08C831E821F82188619
:1016C00019861A861B861C861D861E861F86188A0A
:1016D000198A1A8ACDCF803251F683E085834091F2
:1016E000530D5091540D6091550D7091560D478BCF
:1016F000508F618F728F9F012D5E3F4F89E39DE078
:1017000046DF8111D4CFB3CF8F929F92AF92BF9219
:10171000CF92DF92EF92FF920F931F93CF93DF93BD
:10172000EC018D8181110EC080E0DF91CF911F917E
:101730000F91FF90EF90DF90CF90BF90AF909F9070
:101740008F9008950B891C892D893E8904171507F0
:101750002607370748F34A015B01823031F48A8655
:101760009B86AC86BD8681E0E0CF81149104A10404
:10177000B10449F41E821F82188619861A861B86B8
:101780001C861D86F0CF0A851B852C853D85EB8D3B
:10179000FC8D858590E00996B901A8014150510959
:1017A00061097109082E04C076956795579547958C
:1017B0000A94D2F775016401E1E0CE1AD108E1087C
:1017C000F10804C0F694E794D794C7948A95D2F7A9
:1017D000C416D506E606F70620F0012B022B032BD4
:1017E00009F58F89988DA98DBA8D8E839F83A887DF
:1017F000B9878E010A5F1F4FC114D104E104F104BF
:1018000009F4ADCF4E815F816885798598018B8D14
:101810009C8D3DDE91E0C91AD108E108F1088111E3
:10182000EBCF82CFC41AD50AE60AF70AE2CF3F927D
:101830004F925F926F927F928F929F92AF92BF92E0
:10184000CF92DF92EF92FF920F931F93CF93DF938C
:10185000CDB7DEB72C970FB6F894DEBF0FBECDBF65
:101860005C01DC015B968D909C905C9716964D9088
:101870005D906D907C90199741145104610471043E
:1018800009F467C0BFEF4B1A5B0A6B0A7B0A312C65
:10189000F40181859285A385B4859C01AD012F5FFC
:1018A0003F4F4F4F5F4F29873A874B875C877301C4
:1018B00062011D821E821F821886F4018185928535
:1018C000A385B4852D813E814F815885281739071E
:1018D0004A075B0708F054C089859A85AB85BC85AB
:1018E0008C159D05AE05BF0550F482E0C82ED12CA5
:1018F000E12CF12C92E0492E512C612C712C9E018F
:101900002F5F3F4FB701A601C401C1DD8823C1F19C
:1019100089819A81AB81BC81892B8A2B8B2B09F120
:10192000260137019FEF491A590A690A790A2D8160
:101930003E814F8158852F5F3F4F4F4F5F4F2D8323
:101940003E834F8358873FEFC31AD30AE30AF30A53
:10195000B4CFF4014080518062807380332433948B
:1019600097CFC414D504E604F70409F70FEF1FEF6F
:101970002FEF3FE0B701A601C401E8DC811119C0D7
:1019800080E02C960FB6F894DEBF0FBECDBFDF917E
:10199000CF911F910F91FF90EF90DF90CF90BF906C
:1019A000AF909F908F907F906F905F904F903F90FF
:1019B0000895F5014681578160857185411551056E
:1019C0006105710531F097018601C401BFDC8823F0
:1019D000B9F2D5011696CD92DD92ED92FC9219974F
:1019E000332051F0D701C6010196A11DB11DF401AC
:1019F00080839183A283B383F5018789908DA18D24
:101A0000B28D892B8A2B8B2B39F4C78AD08EE18E2D
:101A1000F28E84818068848381E0B3CFCF93DF939B
:101A2000EC018D81882379F18C8187FF29C06E8537
:101A30007F858889998941E01BDB882321F1EA8928
:101A400080E2E89FF0011124E151F64F3097D9F080
:101A50008D81823040F48B899C89AD89BE89848FC9
:101A6000958FA68FB78F8F89988D938F828F8F894F
:101A7000988DA98DBA8DB58BA48B8C818F778C8333
:101A8000DF91CF91BACA80E0DF91CF910895CF93D3
:101A9000DF93EC01C3DF882311F01D8281E0DF9129
:101AA000CF9108952F923F924F925F926F927F92C3
:101AB0008F929F92AF92BF92CF92DF92EF92FF925E
:101AC0000F931F93CF93DF9300D01F92CDB7DEB754
:101AD0008C015B011A01DC0115968C911597813000
:101AE00009F0C5C014968C9181FFC1C082FDACC0C5
:101AF0006101D8011A964D915D916D917C911D9770
:101B0000C114D10409F423C15B968D919C915C971B
:101B1000FC0174802FEF270D2A013B0139E07694F8
:101B20006794579447943A95D1F7722E74207A01AE
:101B3000F1E0FF2271101FC0E114F104E1F41696E8
:101B40004D915D916D917C911997411551056105FC
:101B5000710509F095C057968D919D910D90BC919E
:101B6000A02D0097A105B10509F0ABC0C8015FDE4B
:101B7000882309F47CC080E092E08E199F09460119
:101B80008C159D0508F44C01D8015B964D915C9134
:101B90005C9716968D919D910D90BC91A02D02970A
:101BA000A109B109FA01258504C0880F991FAA1F50
:101BB000BB1F2A95D2F74685578560897189840FA6
:101BC000951FA61FB71F9C01AD01270D311D411D9B
:101BD000511D29013A01811432E0930609F077C0C2
:101BE0008091000290910102A0910202B091030243
:101BF00084159505A605B70559F48FEF9FEFDC0115
:101C00008093000290930102A0930202B09303021A
:101C10009501B301A2018091EF0B9091F00B90D947
:101C2000882329F19EEFB91AC818D908F8018285CE
:101C30009385A485B585880D991DA11DB11D828749
:101C40009387A487B58755CFF8014389548965895F
:101C5000768982859385A485B585481759076A07D3
:101C60007B0709F445CFC8014FDD811141CF81E0E9
:101C700090E0D80113969C938E93129780E006C053
:101C80009E012F5F3F4F03DC811102C090E075C0C1
:101C900089819A81AB81BC81F801238D348DF90152
:101CA000278948EF5FEF60E070E0203121F048EFD6
:101CB0005FEF6FEF7FE084179507A607B70708F07F
:101CC00055CFF80186839783A087B18754CFE1145D
:101CD000F10489F5D8011A964D915D916D917C9131
:101CE0001D9753968D919D910D90BC91A02D4817F5
:101CF00059076A077B07F8F080D9882309F4B7CF22
:101D0000409200025092010260920202709203021D
:101D10008091880381608093880397012151364F19
:101D2000D501C901880D991DF9018E179F0751F042
:101D30004D914193FACF41E0C301B20199D981118C
:101D4000ECCF95CF821B930BA80EB91E6DCFF80177
:101D500083899489A589B68984179507A607B7074B
:101D600038F48481438B548B658B768B80688483B5
:101D7000F801848183FD18C0C1010F900F900F906E
:101D80000F90DF91CF911F910F91FF90EF90DF9017
:101D9000CF90BF90AF909F908F907F906F905F900B
:101DA0004F903F902F900895C80138DE882309F4A2
:101DB0005ECFE2CFCF93DF931F92CDB7DEB76983BB
:101DC00041E050E0BE016F5F7F4F6CDE0F90DF910E
:101DD000CF910895FC01DB0112968D919C91139790
:101DE0009383828380E392E09183808314968C9125
:101DF0001497848315968C911597858316964D912B
:101E00005D916D917C9119974683578360877187A7
:101E10001A964D915D916D917C911D9742875387E4
:101E2000648775871E964D915D916D917C91519758
:101E300046875787608B718B52968C915297828B15
:101E400053964D915D916D917C915697438B548B38
:101E5000658B768B57964D915D916D917C915A97DC
:101E6000478B508F618F728F5B968D919C91948F71
:101E7000838F0895FC01818D928D009709F0CECD5E
:101E80000895DC015996ED91FC913097B9F0838962
:101E90009489A589B6894285538564857585841B97
:101EA000950BA60BB70B811520E89207A105B1058C
:101EB00038F08FEF9FE7A0E0B0E0089590E080E079
:101EC0000895CF93DF93EC01E98DFA8D309749F4B3
:101ED00081E090E09B838A8390E080E0DF91CF9166
:101EE000089513821282898D9A8DDCDDE98DFA8D39
:101EF00022813381232B61F7F1CFCF93DF931F92A0
:101F0000CDB7DEB76983DC01ED91FC910280F381EE
:101F1000E02D41E050E0BE016F5F7F4F19950F90BB
:101F2000DF91CF9108952F923F924F925F926F92DF
:101F30007F928F929F92AF92BF92CF92DF92EF9259
:101F4000FF920F931F93CF93DF9300D0CDB7DEB7EF
:101F5000FC018581811118C08FEF9FEF0F900F90CA
:101F60000F90DF91CF911F910F91FF90EF90DF9035
:101F7000CF90BF90AF909F908F907F906F905F9029
:101F80004F903F902F900895848180FFE5CF438943
:101F900054896589768982859385A485B585312C98
:101FA000212C481759076A077B0719F0222423942C
:101FB000312C6F012101CE0101963C01DF01169603
:101FC000BB83AA834114510409F4C3C0F6014285BE
:101FD0005385648575854A01F1E09F22D6015B96A1
:101FE0008D919C915C978A019B01E9E0369527953C
:101FF00017950795EA95D1F71596EC91E230E1F542
:10200000FC01628D738D848D958D600F711F821F11
:10201000931FA12C22E0B22EA818B9084A145B0421
:1020200008F45201F601248126FD04C0A114F2E057
:10203000BF0671F40091000210910102209102028A
:1020400030910302061717072807390709F05CC00B
:1020500040E00ED8882309F47FCFC4018151964F08
:10206000D3019C012A0D3B1DFC012E173F0709F4EB
:102070006BC041914D93F9CFDC011496BC90BA949A
:10208000B0228114910479F4B1100DC0452B462B78
:10209000472B69F5F6018789908DA18DB28D8683D6
:1020A0009783A087B187D6015B96ED91FC915C97F1
:1020B00016966D917D918D919C9119976250710941
:1020C00081099109258504C0660F771F881F991F14
:1020D0002A95D2F70685178520893189600F711FEF
:1020E000821F931F6B0D711D811D911D92CFD60113
:1020F00016964D915D916D917C9119972A813B8146
:10210000C6D98111D0CF28CF730185019401AB01CD
:10211000BC018091EF0B9091F00B0E94080788237F
:1021200009F41ACF6A0C7B1CF60182859385A4857D
:10213000B5858A0D9B1DA11DB11D82879387A4873C
:10214000B5874A185B083ECF281B390B620E731EF9
:10215000EBCF2A94232809F0FFCE898190E0FECEB0
:10216000FC01818D928D009709F0DDCE8FEF9FEFFE
:1021700008950F931F93CF93DF93EC01898D9A8D70
:1021800010E000E0009789F0CEDE8C010F3F1007D1
:1021900061F0898D9A8DFC01428553856485758532
:1021A0004150510961097109AFDAC801DF91CF913E
:1021B0001F910F91089590E080E008950F931F9371
:1021C000CF93DF934115510541F0FC010481158146
:1021D0000115110539F4FB011082DF91CF911F9198
:1021E0000F910895415051094017510708F48A0191
:1021F000EB01FC0160817181A801CE010E94CE3605
:10220000C00FD11F1882E9CF8091A70D9091A80D22
:10221000009759F03CDC8091A70D9091A80D0E9489
:1022200041351092A80D1092A70D0895FC018081F0
:102230009181009711F00C9441350895CF92DF926F
:10224000EF92FF921F93CF93DF93EC0180E2689FA0
:10225000F0011124E151F64F9385917161F0842FC3
:10226000827449F080E0DF91CF911F91FF90EF9051
:10227000DF90CF900895142F6A8B80910002909187
:102280000102A0910202B09103028E879F87A88B62
:10229000B98BC488D588F12CE12C7601DD24CC24BF
:1022A000CF8AD88EE98EFA8E828D938DB0E0A0E031
:1022B000AC01BD014C295D296E297F294F8B588FB8
:1022C000698F7A8F83858871B1F4848D958DA68D01
:1022D000B78D8B8B9C8BAD8BBE8B81E08D831F70FC
:1022E0001C831E821F82188619861A861B861C86EE
:1022F0001D8681E0B8CF803109F0B4CF9E012D5EFC
:102300003F4F8B8D9C8D43D9882309F4ABCF84E05C
:10231000E5CFCF93DF93EC0160E08E810E941F0533
:1023200061E08E810E941F0560E08E810E941F0582
:102330008BE891E00197F1F7DF91CF910895CF926B
:10234000DF92EF92FF920F931F93CF93DF936C0175
:102350007C0187E0E80EF11CD0E0C0E0062F10E021
:10236000B8010C2E02C0759567950A94E2F761706A
:10237000F70181917F010E941F052196C430D1058C
:1023800079F7C601DF91CF911F910F91FF90EF90E8
:10239000DF90CF90BECFCF92DF92EF92FF920F935C
:1023A0001F93CF93DF93EC01F62E642F8C810E9454
:1023B0001F058D818F3F19F060E00E941F050F2DD2
:1023C00010E08F8584FF24C06E0187E0C80ED11C09
:1023D000F12CE12CB8010E2C02C0759567950A947A
:1023E000E2F76170F60181916F010E941F05FFEF16
:1023F000EF1AFF0A88E0E816F10461F7CE01DF91D9
:10240000CF911F910F91FF90EF90DF90CF9081CFF0
:10241000B80184E0759567958A95E1F7CE018FDF65
:102420006F2DCE01DF91CF911F910F91FF90EF9013
:10243000DF90CF9084CF40E0682F86E79DE0ABCF60
:1024400081E0F9DF8BE39FE10197F1F70895CF93E6
:10245000DF93823029F49091850D98609093850DDB
:102460008093890D10928A0D80E480938B0D80E11A
:1024700080938C0D80E580938D0D61E080917A0DC5
:102480000E944C0580917B0D8F3F19F061E00E9406
:102490004C0561E080917C0D0E944C05C6E7DDE0B3
:1024A0009E0126573D408091850D84FD0BC084E040
:1024B00090E021962817390744F461E08E810E944C
:1024C0004C05EECF88E090E0F4CF8BE39DE00197E0
:1024D000F1F760E080917A0D0E941F0560E0809125
:1024E0007C0D0E941F0580917B0D8F3F19F060E0ED
:1024F0000E941F058091850D84FD2CC063E086E756
:102500009DE01DDFCBE4D6E4CE010197F1F763E057
:1025100086E79DE014DF2197F1F763E086E79DE011
:102520000EDF83E592E00197F1F762E086E79DE038
:1025300006DF8091850D80627EDF84E08093860DCA
:102540008CE079DF7DDF82E08093870D86E0DF918C
:10255000CF9171CF80626FDF8BE496E40197F1F742
:102560008091850D806267DF83E592E00197F1F746
:102570008091850D80625FDFDCCF9091890D6917B6
:1025800010F06FEF690FE62FF0E0EA58F24F9489F0
:10259000890F806850CF41E0FEDE81E090E0089531
:1025A0001F93CF93DF934091120E5091130E6091C1
:1025B000140E7091150E4F5F5F4F6F4F7F4F40931A
:1025C000120E5093130E6093140E7093150E8432F6
:1025D00009F493C2E091100E853254F48A3019F058
:1025E0008D3009F099C2D82FEF3068F0C0E0CBC031
:1025F0008A32C9F38C3209F08FC29091FD0D982771
:102600009093FD0DF0CF80910F0EF0E0E150F24F6E
:102610001082C091FE0DCC2309F43BC18091FF0DC7
:10262000282F082E000C330B9FEB980F963008F0E4
:10263000BCC0275331092295207F3091000E832F93
:10264000032E000C990B4FEB430F463008F0B6C039
:10265000C797280F8091FD0D281311C1C091110E4D
:10266000CC2321F28091160E9091170E0196909333
:10267000170E8093160E8091F10D9091F20DA0919E
:10268000F30DB091F40D8093ED0D9093EE0DA093AA
:10269000EF0DB093F00D8091F90D9091FA0DA0918E
:1026A000FB0DB091FC0D8093F50D9093F60DA0936A
:1026B000F70DB093F80D80910E0E882309F486C0B3
:1026C000813009F060C08091AD0D9091AE0DA09168
:1026D000AF0DB091B00D8093A90D9093AA0DA0936A
:1026E000AB0DB093AC0D8091B50D9091B60DA0914E
:1026F000B70DB091B80D8093B10D9093B20DA0932A
:10270000B30DB093B40D8091BD0D9091BE0DA0910D
:10271000BF0DB091C00D8093B90D9093BA0DA093E9
:10272000BB0DB093BC0D8091C50D9091C60DA091CD
:10273000C70DB091C80D8093C10D9093C20DA093A9
:10274000C30DB093C40D8091D50D9091D60DA0917D
:10275000D70DB091D80D8093D10D9093D20DA09349
:10276000D30DB093D40D8091DD0D9091DE0DA0912D
:10277000DF0DB091E00D8093D90D9093DA0DA09309
:10278000DB0DB093DC0D80910F0E8F5F80930F0EE9
:102790001092100E81E0DA3209F080E08093FE0D95
:1027A0008C2FDF91CF911F9108958156863018F4B8
:1027B0002755310940CF205331093DCF31563630AE
:1027C00018F48755910945CFC09743CF8091CD0D1F
:1027D0009091CE0DA091CF0DB091D00D8093C90DE9
:1027E0009093CA0DA093CB0DB093CC0D8091AD0DFD
:1027F0009091AE0DA091AF0DB091B00D8093A90D49
:102800009093AA0DA093AB0DB093AC0D8091BD0D2C
:102810009091BE0DA091BF0DB091C00D8093B90DE8
:102820009093BA0DA093BB0DB093BC0D8091C50DD4
:102830009091C60DA091C70DB091C80D8093C10DA8
:102840009093C20DA093C30DB093C40D8091EB0D76
:102850009091EC0D9093EA0D8093E90D8091E50D38
:102860009091E60DA091E70DB091E80D8093E10DF8
:102870009093E20DA093E30DB093E40D84CF80918B
:10288000180E9091190E01969093190E8093180EC0
:10289000ADCE81111BC0AFEFBDE046E552E09D011A
:1028A000F90181919F01882309F44AC1FA019191AC
:1028B000AF018917A9F3ECE5F2E08D91882309F4C3
:1028C00043C191918917C9F382E03BC1E0910E0E9B
:1028D000E23009F48BCE9091FF0D992309F486CE56
:1028E00020E2E29FF0011124E82B3197E932F10553
:1028F00008F049CF8827E058FB4E8F4F0C94833463
:10290000C614E114F61411151C1556155D1567153E
:102910007215C313C313C313C313C313C313C31356
:10292000C313C313C313C313C313C313C313C313F7
:10293000C313C313C313C313C313C313C313C313E7
:10294000C614DB14E114F61411151C1537154215C5
:10295000A914EFEFFDE020E030E0A901119180ED36
:10296000810F8A3008F099C0AAE0B0E00E94E531FA
:10297000212F110F330B440B550B260F371F481F08
:10298000591F2053310941095109E8CF0E943502EE
:102990006093AD0D7093AE0D8093AF0D9093B00D1D
:1029A0000E94D5056093F10D7093F20D8093F30DA5
:1029B0009093F40DE8CE81E0913409F47BC080E07F
:1029C00079C00E94A7026093BD0D7093BE0D8093E5
:1029D000BF0D9093C00D0E94D5056093F90D7093C3
:1029E000FA0D8093FB0D9093FC0DCDCE933509F03D
:1029F000FDCD8091BD0D9091BE0DA091BF0DB09108
:102A0000C00DB095A095909581959F4FAF4FBF4F4A
:102A10008093BD0D9093BE0DA093BF0DB093C00DDC
:102A2000B2CE0E94A7026093C50D7093C60D80932D
:102A3000C70D9093C80DA7CE973509F0D7CD8091DB
:102A4000C50D9091C60DA091C70DB091C80DB09560
:102A5000A095909581959F4FAF4FBF4F8093C50D27
:102A60009093C60DA093C70DB093C80D8CCE0E9455
:102A700035026093D50D7093D60D8093D70D90934A
:102A8000D80D81CE0E9435026093DD0D7093DE0D6E
:102A90008093DF0D9093E00D76CE2093B50D3093AB
:102AA000B60D4093B70D5093B80D6DCE81E09133C4
:102AB0000CF485CF8093110E66CE8FEF9DE00E94BF
:102AC000AC2C99279093EC0D8093EB0D5CCE0E947B
:102AD00035026093E50D7093E60D8093E70D9093BA
:102AE000E80D51CE0E9435026093CD0D7093CE0D4E
:102AF0008093CF0D9093D00D46CE1092100E109271
:102B00000F0E1092FD0D82E080930E0E1092FE0DBE
:102B10001092110EC0E044CEEE3040F491E09E0FD2
:102B20009093100EF0E0E150F24F8083C091FE0DC3
:102B3000C111F0CF9091FD0D89278093FD0D30CE0E
:102B400081E080930E0E1FCE10920E0E1CCEFB0164
:102B500001900020E9F73197AF01461B570BDC01CC
:102B6000ED91FC910280F381E02D1994CF93DF93D6
:102B7000BC018EE89CE00E944E03EC0162E672E02C
:102B80008EE89CE0E4DF8C0F9D1FDF91CF910895CC
:102B90008F929F92AF92BF92EF92FF920F931F93EB
:102BA000CF93DF93CDB7DEB7A1970FB6F894DEBF12
:102BB0000FBECDBF7C01FA01CB0119A2223008F46F
:102BC0002AE08E010F5D1F4F822E912CB12CA12C7B
:102BD000BF01A50194010E946134F901CA016A3064
:102BE00004F5605DD8016E938D01232B242B252BDA
:102BF00079F790E080E0109719F0BD01C701A7DFD9
:102C0000A1960FB6F894DEBF0FBECDBFDF91CF9176
:102C10001F910F91FF90EF90BF90AF909F908F907A
:102C20000895695CDFCFCF92DF92EF92FF920F930E
:102C30001F93CF93DF936B01770FEE08FF08F7FE2A
:102C40001AC0EC016DE20E9447038C01442755270E
:102C5000BA014C195D096E097F092AE0CE0198DF9F
:102C6000800F911FDF91CF911F910F91FF90EF90F7
:102C7000DF90CF9008952AE0B701A601DF91CF91B0
:102C80001F910F91FF90EF90DF90CF9081CFCF9366
:102C9000DF93BC018EE89CE05ADFEC0162E672E053
:102CA0008EE89CE054DF8C0F9D1FDF91CF9108953B
:102CB000CF92DF92EF92FF92CF93DF936C01990F47
:102CC000EE08FF08F7FE21C06DE28EE89CE00E944E
:102CD0004703EC0144275527BA014C195D096E09D9
:102CE0007F092AE08EE89CE053DFC80FD91F62E617
:102CF00072E08EE89CE02BDF8C0F9D1FDF91CF915F
:102D0000FF90EF90DF90CF9008952AE0B701A601E1
:102D10008EE89CE03DDFEC01EACFFC0180819181EF
:102D2000009711F00C94A92C60E070E0CB0108959D
:102D30000F931F93CF93DF938C01EB01FC018081F4
:102D400091810097E1F06881798161157105A9F0A1
:102D5000428153812C813D814217530770F00E94BC
:102D6000C7368C819D81F801958384831D821C82E6
:102D7000DF91CF911F910F9108950E944135888175
:102D80009981F801918380838A819B8193838283D7
:102D90008C819D8195838483198218821B821A827B
:102DA000E5CF0F931F93CF93DF93EC018881998137
:102DB000009759F02A813B812617370730F081E0D0
:102DC000DF91CF911F910F9108958B016F5F7F4F1E
:102DD0000E94CA35009759F0998388831B830A8320
:102DE0002C813D81232B59F7FC011082E8CF80E034
:102DF000E7CFEF92FF920F931F93CF93DF93FB01E7
:102E0000E080F180E114F10441F480E0DF91CF91A2
:102E10001F910F91FF90EF90089504811581011586
:102E20001105A9F0EC018C819D81080F191FB801D3
:102E3000CE01B7DF882349F3288139818C819D81B8
:102E4000B701820F931F0E94C7361D830C8381E058
:102E5000DDCFEF92FF920F931F93CF93DF931F92DB
:102E60001F92CDB7DEB78C0169831A82FC01E48022
:102E7000F580FFEFEF1AFF0AB70193DF882381F097
:102E8000F8012081318184819581BE016F5F7F4F80
:102E9000820F931F0E94C736F801F582E48281E019
:102EA0000F900F90DF91CF911F910F91FF90EF90B6
:102EB0000895EF92FF920F931F93CF93DF93EC014E
:102EC0007B018A01BA016DDF28813981811114C02B
:102ED0002115310519F0C9010E9441351982188266
:102EE0001D821C821B821A82CE01DF91CF911F911D
:102EF0000F91FF90EF9008951D830C83B701C901D6
:102F00000E94C736F1CFFB0101900020E9F731970D
:102F1000AF01461B570BCDCFEF92FF920F931F933C
:102F2000CF93DF93CDB7DEB7A1970FB6F894DEBF8E
:102F30000FBECDBF7C01CB01BA01F7011182108217
:102F400013821282158214828E010F5F1F4F26E0BA
:102F500048E00E948C2C009781F0BC01C701D3DFB0
:102F6000A1960FB6F894DEBF0FBECDBFDF91CF9113
:102F70001F910F91FF90EF900895F701808191814B
:102F8000009711F00E944135F701118210821582DD
:102F9000148213821282E4CF0F931F93CF93DF9397
:102FA000CDB7DEB762970FB6F894DEBF0FBECDBFC8
:102FB0008C01CB01F80111821082138212821582DA
:102FC00014824AE0BE016F5F7F4F0E94C92CBE0190
:102FD0006F5F7F4FC80197DF62960FB6F894DEBF30
:102FE0000FBECDBFDF91CF911F910F910895FC01CE
:102FF000118210821382128215821482FB010190C9
:103000000020E9F73197AF01461B570B52CF3F9293
:103010004F925F926F927F928F929F92AF92BF92E8
:10302000CF92DF92EF92FF920F931F93CF93DF9394
:1030300000D000D000D01F921F92CDB7DEB77C0128
:10304000FE013196CE010C966F0130E23193E81704
:10305000F907E1F7DA0130E087E09D91B92E992375
:1030600009F43CC09E32F1F48A30C9F480E02B961A
:103070000FB6F894DEBF0FBECDBFDF91CF911F9189
:103080000F91FF90EF90DF90CF90BF90AF909F9007
:103090008F907F906F905F904F903F90089538E0B1
:1030A0008AE0DBCFE5E6F2E04491442321F031965B
:1030B0009413FACFDBCF8317C8F24FED490F4E358B
:1030C000A8F64FE9490F4A3118F440EEB42EB90E74
:1030D000F601E30FF11DB0823F5FBFCF89818032DF
:1030E00029F2322E8B01DB015B968D919C915C97CE
:1030F000F701948F838F16961D921D921D921C923C
:103100001997FB011286138614861586F8018285AD
:103110009385A485B5854389548965897689841703
:103120009507A607B70708F04DC025E0B695A79507
:10313000979587952A95D1F7F82FFF70AF2ED80174
:1031400015968C91823008F491CFC8010E94930F9C
:1031500097FD8CCFF80182859385A485B5854F9620
:10316000A11DB11D82879387A487B587F0E2AF9E2A
:10317000B00111246151764F6115710509F476CFC4
:10318000DB018C91882341F0853E09F061C0BB20B2
:1031900029F0BB24B394BACFB1100EC0F701A28AB4
:1031A0008091000290910102A0910202B09103026D
:1031B00086879787A08BB18BDB018C918111E9CF3A
:1031C000BB24B394832D8271823109F04FCFBB2091
:1031D00009F44CC0F701668577858089918941E0C3
:1031E0000E943808882309F441CFD70152968C9168
:1031F000B0E28B9FC00111248151964F009709F4D2
:1032000035CFFC013A9626E1DF011D922A95E9F7B8
:103210002BE0F601DC0101900D922A95E1F721E205
:1032200038E2FC01318B208B40E058E0578746871D
:10323000338B228B318F208F578B468B0E94FD075B
:10324000882309F413CF432DD70152966C910AC0FD
:103250004BE050E0C6010E94A636892B09F056CFFC
:10326000432D6A2DC7010E941E1101CFF8018581EF
:10327000823009F4FBCEC8010E94170C882309F4A0
:10328000F5CED8015B96ED91FC915C9716968D90EA
:103290009D90AD90BC901997B2E08B1A9108A1084F
:1032A000B108858504C0880C991CAA1CBB1C8A9592
:1032B000D2F786859785A089B189880E991EAA1EA6
:1032C000BB1E848124013501480E511C611C711CF8
:1032D00084149504A604B70401F1E1E04E1A5108E4
:1032E000610871080E94FD07882309F4BFCEEFEE44
:1032F000F9E011928FEE9BE08E179F07D1F7409275
:1033000000025092010260920202709203028091C8
:103310008803816080938803DBCFD8015B96ED91B1
:10332000FC91258580E092E0A0E0B0E004C0880F29
:10333000991FAA1FBB1F2A95D2F7F8014389548908
:1033400065897689840F951FA61FB71F838B948B81
:10335000A58BB68BD70152961C928FEE99E051CF78
:10336000EF92FF920F931F93CF93DF93EC017B01BA
:103370008A011B821A8288EE93E0A0E0B0E08C8381
:103380009D83AE83BF8388E492E0998388838DE137
:1033900090E00E94A5349A8F898F009779F02DE1F3
:1033A000F701DC0101900D922A95E1F74CE050E025
:1033B000B801CE010C960E94CE36188EDF91CF91C7
:1033C0001F910F91FF90EF9008952F923F924F928F
:1033D0005F926F927F928F929F92AF92BF92CF92A5
:1033E000DF92EF92FF920F931F93CF93DF93CDB7AE
:1033F000DEB7C756D1090FB6F894DEBF0FBECDBFFA
:103400006C015B01A6964FAFA69719A218A280E3A4
:1034100092E09F8F8E8F1BA21C821B829A838983CE
:103420001E824E018EE1880E911CC4010E94310B58
:1034300075018E010F5F1F4F240118016FE270E0CC
:10344000C7010E94BC36009709F45BC0F7012081D8
:103450002F3271F4FFEFEF1AFF0A902F812F8201B4
:10346000492E582E942D852D2801092F182FE6CF8F
:103470008E198D3008F08CE0682E712CA301B701F5
:10348000CE01885A9F4F0E94CE36E8E5F0E0EC0F5F
:10349000FD1FE60DF71D1082C8010E94470DF801BF
:1034A00085818823F9F01EAE1DAE80E392E09CAFCB
:1034B0008BAF21961FAE2197A896EEADFFADA897D2
:1034C000AE0EBF1EF5018081811128C0BE01655C72
:1034D0007F4FC1010E94EA0E45E652E0B101C601EC
:1034E0003FDF3AC021E0AE01485A5F4FB201C80148
:1034F0008EDD8823C1F2E60CF71CC2010E94470D45
:10350000B1CFC7018A199B09A8969FAF8EAFA89724
:10351000B201CE01CB960E94EA0ECECF19A218A21C
:1035200080E392E09F8F8E8F1BA221968FAD219713
:1035300081112DC0F6011382128288EE93E0A0E083
:10354000B0E084839583A683B78388E492E0918377
:103550008083128E118E1486C601C959DF4F0FB6B3
:10356000F894DEBF0FBECDBFDF91CF911F910F91B9
:10357000FF90EF90DF90CF90BF90AF909F908F9093
:103580007F906F905F904F903F902F900895A696F8
:103590002FADA697A501BE01655C7F4FC40137DD45
:1035A000882341F2CE01CB960E94470DA6968FAD9F
:1035B000A6978670863039F449A95AA96BA97CA9C7
:1035C000C4010E94840BB401C1010E94EA0EA5014E
:1035D00085CF0F931F93CF93DF93CDB7DEB76B9754
:1035E0000FB6F894DEBF0FBECDBF8C0164E672E06B
:1035F000FEDC41E067E672E0CE010196E6DECE0138
:1036000001960E94FE01E091A70DF091A80D309760
:1036100031F08581882319F080E792E038DB8EE86D
:103620009DE00E94410F892B41F08EE89DE00E94B1
:10363000B010682FC8010DDCF2CFC80197DA0E94E4
:1036400004118DE792E023DBC8016B960FB6F89466
:10365000DEBF0FBECDBFDF91CF911F910F910895B7
:103660004F925F926F927F928F929F92AF92BF9292
:10367000CF92DF92EF92FF920F931F93CF93DF933E
:10368000CDB7DEB76C970FB6F894DEBF0FBECDBFD7
:103690002B013C012D873E874F87588BE98AFA8A98
:1036A0000B8B1C8BC601B50120E030E04AE754E4E7
:1036B0000E942E316D8B7E8B8F8B988F20E030E0B7
:1036C0004AE754E4C801B7010E942E3120E030EDF2
:1036D0004FE557E40E94C8326B017C0120E030E0E6
:1036E0004AE754E4C301B2010E942E3120E030EDDC
:1036F0004FE557E40E94C8324B015C0120E030E006
:103700004AE754E46D857E858F8598890E942E3125
:103710006D877E878F87988BC701B6010E94C5325F
:103720002B013C0120E030ED4FE557E46D897E89A7
:103730008F89988D0E94C832698B7A8B8B8B9C8B7A
:1037400020E030ED4FE557E46D857E858F859889C3
:103750000E94C8329B01AC0169897A898B899C8956
:103760000E94FE310E94CA336D877E878F87988BB7
:10377000C501B4010E94C532698B7A8B8B8B9C8BFF
:10378000C701B6010E94CA336D8B7E8B8F8B988FD9
:10379000C501B4010E94CA33698F7A8F8B8F9C8FC9
:1037A000A5019401C701B6010E94FE310E94C532F5
:1037B0004B015C012D893E894F89588D69897A8931
:1037C0008B899C890E942E316B017C01298D3A8D59
:1037D0004B8D5C8DC301B2010E942E31A501940175
:1037E0000E942E319B01AC01C701B6010E94FE313F
:1037F0006B017C012D853E854F855889C301B2013F
:103800000E942E31A70196010E94723220E030ED15
:103810004FE557E40E942E3120E030E04AE754E4BF
:103820000E94C8326B017C0169E872E0CE01079604
:10383000DEDBB701A601CE0101966EDBBE016F5F34
:103840007F4FCE010796D5DACE0101960E94161160
:10385000CE0107968BD9CE0107960E941611C7019B
:10386000B6010E943033CB0188599E4F68E671E063
:103870000E944E346C960FB6F894DEBF0FBECDBFDB
:10388000DF91CF911F910F91FF90EF90DF90CF903C
:10389000BF90AF909F908F907F906F905F904F9070
:1038A00008954F925F926F927F928F929F92AF9204
:1038B000BF92CF92DF92EF92FF920F931F93CF931D
:1038C000DF93CDB7DEB76C970FB6F894DEBF0FBEAF
:1038D000CDBF6D877E878F87988B2D8B3E8B4F8BCF
:1038E000588F20E030E04AE754E40E942E31698B83
:1038F0007A8B8B8B9C8B20E030E04AE754E4C80144
:10390000B7010E942E31698F7A8F8B8F9C8F2D8506
:103910003E854F855889C801B7010E94FE3120E0DD
:1039200030E04AE754E40E942E3120E030ED4FE5CC
:1039300057E40E94C83220E030E040E05FE30E949C
:103940002E310E94CA336D877E878F87988B20E047
:1039500030ED4FE557E469897A898B899C890E940B
:10396000C8320E94C5322B013C0120E030ED4FE50A
:1039700057E4698D7A8D8B8D9C8D0E94C8320E9490
:10398000C532698B7A8B8B8B9C8B2D893E894F89B5
:10399000588DC601B5010E94FE3120E030E04AE7B3
:1039A00054E40E942E3120E030ED4FE557E40E94B0
:1039B000C83220E030E040E05FE30E942E310E94F8
:1039C000CA334B015C0129893A894B895C89C3015F
:1039D000B2010E942E312B013C01A5019401C501C9
:1039E000B4010E942E319B01AC01C301B2010E94BF
:1039F0002E314B015C012D853E854F855889CA01CA
:103A0000B9010E942E319B01AC01C501B4010E9495
:103A1000FF316B017C01AC019B0160E070E080E84C
:103A20009FE30E94FE310E94D4334B015C01C70129
:103A3000B6010E94D433A50194010E9472329B0109
:103A4000AC010E94FF3120E038E147EC55E40E94D0
:103A50002E316B017C016FE872E0CE010796C7DA68
:103A6000B701A601CE01019657DABE016F5F7F4F05
:103A7000CE010796BED9CE0101960E941611CE0145
:103A8000079674D8CE0107960E941611C701B60199
:103A90006C960FB6F894DEBF0FBECDBFDF91CF910D
:103AA0001F910F91FF90EF90DF90CF90BF90AF905C
:103AB0009F908F907F906F905F904F9008952F927E
:103AC0003F924F925F926F927F928F929F92AF92AE
:103AD000BF92CF92DF92EF92FF920F931F93CF93FB
:103AE000DF93CDB7DEB7AC970FB6F894DEBF0FBE4D
:103AF000CDBF9AA789A7EB988AE696E090930F022C
:103B000080930E02912C812C84E10E94F704892B72
:103B100071F48FEF881A980A97FE04C0A9A5BAA578
:103B20008A0E9B1E84E10E94F704892BD9F385E15C
:103B30000E94F704892B71F4B1E08B1A910897FE6B
:103B400004C0E9A5FAA58E0E9F1E85E10E94F70428
:103B5000892BD9F3AE01455E5F4FBE01695E7F4F91
:103B6000CE0143960E94E1058B899C89AD89BE896F
:103B70008F8F98A3A9A3BAA320E030E04AE754E4CA
:103B8000BC01CD010E94C930811104C01F8E18A252
:103B900019A21AA28F89988DA98DBA8D8BA39CA387
:103BA000ADA3BEA320E030E04AE754E4BC01CD0160
:103BB0000E94C930811104C01BA21CA21DA21EA21A
:103BC000C40169A57AA50E944E341C01DC0183E082
:103BD000AA0FBB1F8A95E1F7BCA7ABA7A956BC4F9C
:103BE000B8A7AFA31496AD90BD90CD90DC90179779
:103BF000ED90FD900D911C912BA13CA14DA15EA1DA
:103C00006F8D78A189A19AA14CDE2B013C01EFA117
:103C1000F8A5A480B580C680D780E080F1800281BD
:103C200013812BA13CA14DA15EA16F8D78A189A12B
:103C30009AA116DD8C010E94201260E080E00E94B3
:103C4000BD12B10186E79DE00E941316B1018EE816
:103C50009CE00E9413166EE286E79DE00E944703F7
:103C60006EE28EE89CE00E94470362E672E08EE816
:103C70009CE00E94A7156FE872E0CE010D96B7D9BF
:103C8000B301A201CE01019647D9BE016F5F7F4FFC
:103C9000CE010D964DD8CE0101960E941611BE019F
:103CA000635F7F4F86E79DE00E944E03CE010D9635
:103CB0000E94B61565E972E0CE010D9624D9B801CF
:103CC000CE01019669D9BE016F5F7F4FCE010D967F
:103CD00090D8CE0101960E94161161E082E00E9408
:103CE000BD12BE01635F7F4F86E79DE00E944E03D9
:103CF0006FED86E79DE00E944703C8010E945816B9
:103D0000A3019201C301B2010E9415346EE972E071
:103D100081111BC073016201E894F7F82FEF3FEFA8
:103D20004FE75FE7C701B6010E9415348111A4C0B7
:103D30002FEF3FEF4FE75FE7C701B6010E94C930A1
:103D400018160CF099C062EA72E08EE89CE00E94BE
:103D5000A71562E672E08EE89CE00E94A715C801F4
:103D60000E945816C1010E94581683E10E94F70470
:103D7000892B09F0FFC0EBA5FCA5E956FC4FC080DC
:103D8000D180E280F380C092D709D092D809E09226
:103D9000D909F092DA0984819581A681B78180934F
:103DA000DB099093DC09A093DD09B093DE0964E69A
:103DB00072E0CE0101961BD9B701A601CE0107968C
:103DC000ABD8BE01695F7F4FCE0101960E94981665
:103DD000CE0107960E9416116CE2CE01019639D8E9
:103DE0004091DB095091DC096091DD097091DE0999
:103DF000CE01079691D8BE01695F7F4FCE01019633
:103E00000E94F916CE0107960E9416118AEA92E0E6
:103E10000E944716CE0101960E94B61585EB90E2EE
:103E200090930F0280930E02809169008F738068D7
:103E300080936900EB9ACE0101960E941611CE0183
:103E40000D960E941611AC960FB6F894DEBF0FBE09
:103E5000CDBFDF91CF911F910F91FF90EF90DF9039
:103E6000CF90BF90AF909F908F907F906F905F901A
:103E70004F903F902F9008952FEF3FEF4FE75FE473
:103E8000C301B2010E94BF3318161CF466EA72E047
:103E90005CCF2FEF3FEF4FE75FECC301B2010E9411
:103EA000C93087FDF3CF20E030E0A901C301B201A2
:103EB0000E94C93087FF09C06DE28EE89CE00E9435
:103EC000470377FA709477F870942AE037ED43EA65
:103ED0005BE3C301B2010E94FF312B013C010E9450
:103EE00035336B017C010E94CD309B01AC01C301D5
:103EF000B2010E94FE312B013C012AE0B701A6016C
:103F00008EE89CE00E94C8156EE28EE89CE00E945C
:103F1000470320E030E040E251E4C301B2010E94D7
:103F20002E316B017C010E9435332B01712C612CE9
:103F30002AE0B301A2018EE89CE00E94C815C301EB
:103F4000B2010E94CD309B01AC01C701B6010E94B5
:103F5000FE3120E030E040E251E40E942E310E9428
:103F60003533AB0170E060E02AE08EE89CE00E940F
:103F7000C815EFCECE010D960E941611C5CD2F9219
:103F80003F924F925F926F927F928F929F92AF92E9
:103F9000BF92CF92DF92EF92FF920F931F93CF9336
:103FA000DF93CDB7DEB7C25BD4400FB6F894DEBF67
:103FB0000FBECDBF4C012DB73EB7CF54DB4F398379
:103FC0002883C15BD440FC01448155814F5F5F4F22
:103FD000241B350B0FB6F8943EBF0FBE2DBF8DB717
:103FE0009EB701965C01BC01C4010E94DE10FE0177
:103FF00031967F012E01FFE44F1AFBEF5F0A870124
:10400000170164E672E0C8010E94F71764E672E0E7
:10401000C80106960E94F717045F1F4F0415150587
:1040200081F710E000E0712C612CD12CC12CF4013F
:10403000848195810817190788F5F501E00FF11FB4
:1040400080818E3639F40F5F1F4FFFEFCF1ADF0AE2
:10405000712C612CF501E00FF11F80818C3229F465
:104060000F5F1F4F66246394712CF501E00FF11F61
:104070002CE02C9DC0012D9D900D112446E0469D05
:104080009001479D300D1124820F931F60818E0D8A
:104090009F1D0E9429170F5F1F4FC9CFC7010E94A4
:1040A000B615CE0107960E94B615CE010D960E9458
:1040B000B615CE0143960E94B615CE0149960E94D0
:1040C000B615CE014F960E94B61507E913E0B12C44
:1040D000A12CCA14DB04D1F0C7010E948D16F8018F
:1040E0006083718382839383C70106960E948D1635
:1040F000F8016483758386839783FFEFAF1ABF0A45
:104100002CE0E20EF11C085F1F4FE3CF36E0431AAC
:104110005108C2010E94161124143504B9F7C601D2
:10412000CF54DB4FE881F981C15BD4400FB6F894DE
:10413000FEBF0FBEEDBFCE54DB4F0FB6F894DEBF0F
:104140000FBECDBFDF91CF911F910F91FF90EF90E8
:10415000DF90CF90BF90AF909F908F907F906F90A7
:104160005F904F903F902F9008950F931F93CF93A0
:10417000DF9300D000D0CDB7DEB784EC92E00E9490
:10418000471600E019E183E10E94F704892B71F0E2
:1041900001501109C1F726960FB6F894DEBF0FBE85
:1041A000CDBFDF91CF911F910F910895CE01019660
:1041B00010DACE010196E3DE82DCCE0101960E9488
:1041C0001611E9CF2F923F924F925F926F927F929A
:1041D0008F929F92AF92BF92CF92DF92EF92FF9217
:1041E0000F931F93CF93DF93CDB7DEB7C25BD4405D
:1041F0000FB6F894DEBF0FBECDBF4C012DB73EB752
:10420000CF54DB4F39832883C15BD440FC01448108
:1042100055814F5F5F4F241B350B0FB6F8943EBF9F
:104220000FBE2DBF8DB79EB701965C01BC01C401C6
:104230000E94DE10FE0131967F012E01FFE44F1A2D
:10424000FBEF5F0A8701170164E672E0C8010E9474
:10425000F71764E672E0C80106960E94F717045F3C
:104260001F4F0415150581F710E000E0712C612C3B
:10427000D12CC12CF401848195810817190788F588
:10428000F501E00FF11F80818E3639F40F5F1F4F6B
:10429000FFEFCF1ADF0A712C612CF501E00FF11F3F
:1042A00080818C3229F40F5F1F4F66246394712C38
:1042B000F501E00FF11F2CE02C9DC0012D9D900D0C
:1042C000112446E0469D9001479D300D1124820F38
:1042D000931F60818E0D9F1D0E9429170F5F1F4F36
:1042E000C9CFC7010E94B615CE0107960E94B61528
:1042F000CE010D960E94B615CE0143960E94B615CA
:10430000CE0149960E94B615CE014F960E94B61571
:1043100007EB16E0B12CA12CCA14DB04D1F0C701C5
:104320000E948D16F8016083718382839383C70195
:1043300006960E948D16F8016483758386839783A1
:10434000FFEFAF1ABF0A2CE0E20EF11C085F1F4F0F
:10435000E3CF36E0431A5108C2010E94161124141B
:104360003504B9F7C601CF54DB4FE881F981C15B51
:10437000D4400FB6F894FEBF0FBEEDBFCE54DB4F56
:104380000FB6F894DEBF0FBECDBFDF91CF911F9166
:104390000F91FF90EF90DF90CF90BF90AF909F90E4
:1043A0008F907F906F905F904F903F902F900895E7
:1043B0001F920F920FB60F9211240BB60F922F93EC
:1043C0003F934F935F936F937F938F939F93AF939D
:1043D000BF93EF93FF9381EF9BE00E94D803FF917F
:1043E000EF91BF91AF919F918F917F916F915F916D
:1043F0004F913F912F910F900BBE0F900FBE0F90DA
:104400001F9018951F920F920FB60F9211240BB6A2
:104410000F922F938F939F93EF93FF93E091010C53
:10442000F091020C8081E091070CF091080C82FD64
:104430001DC0908180910A0C8F5F8F7320910B0CAF
:10444000821741F0E0910A0CF0E0EF50F44F958FA5
:1044500080930A0CFF91EF919F918F912F910F9074
:104460000BBE0F900FBE0F901F9018958081F2CF5A
:104470001F920F920FB60F9211240BB60F922F932B
:104480003F934F935F936F937F938F939F93AF93DC
:10449000BF93EF93FF938EE89CE00E94D803FF91B7
:1044A000EF91BF91AF919F918F917F916F915F91AC
:1044B0004F913F912F910F900BBE0F900FBE0F9019
:1044C0001F9018951F920F920FB60F9211240BB6E2
:1044D0000F922F938F939F93EF93FF93E0919E0CF6
:1044E000F0919F0C8081E091A40CF091A50C82FDCD
:1044F0001DC090818091A70C8F5F8F732091A80CB5
:10450000821741F0E091A70CF0E0E257F34F958F4E
:104510008093A70CFF91EF919F918F912F910F9016
:104520000BBE0F900FBE0F901F9018958081F2CF99
:104530001F920F920FB60F9211242F933F938F93D8
:104540009F93AF93BF9380918E0390918F03A0911F
:104550009003B091910330918D0323E0230F2D3709
:1045600058F50196A11DB11D20938D0380938E03F4
:1045700090938F03A0939003B09391038091920343
:1045800090919303A0919403B09195030196A11D7E
:10459000B11D8093920390939303A0939403B093DF
:1045A0009503BF91AF919F918F913F912F910F9064
:1045B0000FBE0F901F90189526E8230F0296A11D9D
:1045C000B11DD2CF1F920F920FB60F9211240BB6CE
:1045D0000F922F933F934F935F936F937F938F939C
:1045E0009F93AF93BF93EF93FF93E0911202F091EB
:1045F00013021995FF91EF91BF91AF919F918F9108
:104600007F916F915F914F913F912F910F900BBED2
:104610000F900FBE0F901F9018951F920F920FB61C
:104620000F9211240BB60F922F933F934F935F93EA
:104630006F937F938F939F93AF93BF93EF93FF936A
:10464000E0911002F09111021995FF91EF91BF9145
:10465000AF919F918F917F916F915F914F913F911A
:104660002F910F900BBE0F900FBE0F901F901895BB
:104670001F920F920FB60F9211240BB60F922F9329
:104680003F934F935F936F937F938F939F93AF93DA
:10469000BF93EF93FF93E0910602F0910702199503
:1046A000FF91EF91BF91AF919F918F917F916F910A
:1046B0005F914F913F912F910F900BBE0F900FBEC6
:1046C0000F901F9018951F920F920FB60F92112402
:1046D0000BB60F922F933F934F935F936F937F93FC
:1046E0008F939F93AF93BF93EF93FF93E091040257
:1046F000F09105021995FF91EF91BF91AF919F91B4
:104700008F917F916F915F914F913F912F910F907A
:104710000BBE0F900FBE0F901F9018951F920F9217
:104720000FB60F9211240BB60F922F933F934F9316
:104730005F936F937F938F939F93AF93BF93EF9309
:10474000FF93E0910E02F0910F021995FF91EF9106
:10475000BF91AF919F918F917F916F915F914F9199
:104760003F912F910F900BBE0F900FBE0F901F9097
:1047700018951F920F920FB60F9211240BB60F923D
:104780002F933F934F935F936F937F938F939F9359
:10479000AF93BF93EF93FF93E0910C02F0910D0262
:1047A0001995FF91EF91BF91AF919F918F917F915B
:1047B0006F915F914F913F912F910F900BBE0F9092
:1047C0000FBE0F901F9018951F920F920FB60F9269
:1047D00011240BB60F922F933F934F935F936F93D8
:1047E0007F938F939F93AF93BF93EF93FF93E0914A
:1047F0000A02F0910B021995FF91EF91BF91AF91D1
:104800009F918F917F916F915F914F913F912F91E8
:104810000F900BBE0F900FBE0F901F9018951F9218
:104820000F920FB60F9211240BB60F922F933F9356
:104830004F935F936F937F938F939F93AF93BF93A8
:10484000EF93FF93E0910802F09109021995FF910F
:10485000EF91BF91AF919F918F917F916F915F91F8
:104860004F913F912F910F900BBE0F900FBE0F9065
:104870001F9018950F931F93E1EFFBE013821282B4
:1048800008EE13E020E030E00483158326833783AD
:104890008EE192E09183808345E351E05587448720
:1048A00044E351E05787468740E351E0518B408B0A
:1048B00041E351E0538B428B42E351E0558B448BF3
:1048C00046E351E0578B468B118E128E138E148E59
:1048D000EEE8FCE01382128204831583268337837B
:1048E0009183808385EC90E09587848784EC90E0C9
:1048F0009787868780EC90E0918B808B81EC90E0AD
:10490000938B828B82EC90E0958B848B86EC90E08D
:10491000978B868B118E128E138E148EEBE2FDE038
:1049200080E580831182EDE2FDE01582168211861A
:10493000138682E090E0A0E0B0E084879587A687A8
:10494000B78713A215A614A680E392E093A782A7C7
:1049500017A6E9EAFDE04FEF5FEFBA01408351830C
:104960006283738310861186128613868FEF99EC0B
:10497000AAE9BBE3808B918BA28BB38B808F918F45
:10498000A28FB38F80A391A3A2A3B3A380A791A763
:10499000A2A7B3A780AB91ABA2ABB3AB40AF51AF73
:1049A00062AF73AF8FEF90E09093EA0D8093E90DC3
:1049B0004093ED0D5093EE0D6093EF0D7093F00D5D
:1049C0004093F50D5093F60D6093F70D7093F80D2D
:1049D0001092FD0D1092FE0D82E080930E0E10924B
:1049E0000F0E1092100E1092110E1092120E1092C5
:1049F000130E1092140E1092150E1092170E1092A4
:104A0000160E1092190E1092180E1092FF0DEEE86D
:104A1000FDE013821282048315832683378328E402
:104A200032E031832083128E118E1486E6E7FDE09A
:104A3000138212822CE332E0318320839CE0948342
:104A40009FEF95839BE0968395E0978394E0908712
:104A500093E09187828713861486158616861786BB
:104A600081E01F910F910C942712CF93DF93CDB764
:104A7000DEB7C954D1090FB6F894DEBF0FBECDBF63
:104A8000789484B5826084BD84B5816084BD85B529
:104A9000826085BD85B5816085BD80916E00816035
:104AA00080936E00109281008091810082608093DB
:104AB00081008091810081608093810080918000DD
:104AC0008160809380008091B10084608093B10008
:104AD0008091B00081608093B000809191008260ED
:104AE00080939100809191008160809391008091EA
:104AF00090008160809390008091A10082608093FB
:104B0000A1008091A10081608093A1008091A0000C
:104B100081608093A00080912101826080932101B7
:104B20008091210181608093210180912001816029
:104B30008093200180917A00846080937A00809134
:104B40007A00826080937A0080917A0081608093FD
:104B50007A0080917A00806880937A001092C10078
:104B6000E0919E0CF0919F0C22E02083E0919A0C42
:104B7000F0919B0C1082E0919C0CF0919D0C80E1D7
:104B800080831092A60CE091A20CF091A30C96E009
:104B90009083E091A00CF091A10C808180618083D2
:104BA000E091A00CF091A10C808188608083E0915D
:104BB000A00CF091A10C808180688083E091A00C12
:104BC000F091A10C80818F7D8083E091010CF091A8
:104BD000020C2083E091FD0BF091FE0B1082E0911E
:104BE000FF0BF091000C8FEC80831092090CE09188
:104BF000050CF091060C9083E091030CF091040CED
:104C0000808180618083E091030CF091040C8081AD
:104C100088608083E091030CF091040C80818068AF
:104C20008083E091030CF091040C80818F7D808360
:104C30000E94A20582E00E9427120E94A20560E065
:104C400084E00E94BD120E94A2056EEC72E086E72D
:104C50009DE00E94A7150E94A20580915C0D88230B
:104C600021F087E59DE00E94470D1092380D1092CB
:104C7000360D1092330D1092320D85E38093310D75
:104C80000E94D5058B0161E08091310D0E944C0599
:104C900061E08091310D0E941F05FFB6F89480916C
:104CA0009603811127C0E4E8F3E08491EEE3F3E09A
:104CB0009491E82FF0E0EE0FFF1FE151FD4FA59119
:104CC000B491EC91E92321F461E085E30E941F0592
:104CD00061E085E30E944C058CB580618CBD8CB58C
:104CE00080648CBD61E084E30E944C0561E083E355
:104CF0000E944C05809196038F5F80939603FFBEC0
:104D000082E580932B0D10922C0D80912B0D9091AC
:104D10002C0D0E949C066AE0F62E8FEF0E947B0607
:104D2000FA94F110FACF8DE29DE00E949F0620E0F8
:104D300030E0A90160E08DE29DE00E94B306F82E0C
:104D40008093370D21E0821709F455C00E94D505E4
:104D5000601B710B613D774050F381E08093320D11
:104D60008DE29DE00E94710687ED92E00E94471659
:104D70000E9420120E94A20560E082E00E94BD1203
:104D800063EF72E086E79DE00E94A7150E94D505BB
:104D90006B017C0110E00E94D5056C197D098E091C
:104DA0009F09683E73408105910508F0EFC047E117
:104DB0006BEF72E0CE0101960E94E519CE010196DB
:104DC0000E94FE0181EF9BE00E94BA03892B09F447
:104DD000DAC081EF9BE00E949803082F682F8EE8CD
:104DE0009DE00E944703802F0E94D012811101C0D4
:104DF000812F182FE7CF2AEA31E040E050E068E049
:104E00008DE29DE00E94B30682FF2AC0F092380D29
:104E10008091380DC12CD12CE12C40E4F42E82304D
:104E200019F0C12CD12C760120E030E0A90167E314
:104E30008DE29DE00E94B306A701960169E28DE232
:104E40009DE00E94B3068093370D8823D1F00E9425
:104E5000D505601B710B613D774030F388E07ECF54
:104E600054E0F52E0E9482068093370DFA94F110DB
:104E7000F9CF8A3A11F082E071CF82E08093380D49
:104E8000C7CF8091380D8230D1F420E030E0A90105
:104E90006AE38DE29DE00E94B306882311F086E06C
:104EA0005DCF0E948206807C803C19F483E0809371
:104EB000380D0E9482060E9482060E9482068DE2C0
:104EC0009DE00E94710680E580932B0D10922C0DC1
:104ED00081E00E947F08882349F087E59DE00E94D9
:104EE000310B882309F440CF10E008C080E00E9415
:104EF0007F08882309F438CFF0CF182F81EF9BE08B
:104F00000E94BA03892B81F081EF9BE00E949803F5
:104F1000082F682F8EE89CE00E944703802F0E9494
:104F2000D0128111EACFEACF112341F3CE010196CD
:104F30000E94E91ACE01019622D80E945F1DCE017F
:104F400001960E94161162E082E10E944C0562E027
:104F500083E10E944C0562E084E10E944C0562E01E
:104F600085E10E944C050E94A20585EB90E290939A
:104F70000F0280930E02809169008F738068809386
:104F80006900EB9A03CF0E94041105CF112309F4A5
:104F900000C164E672E0CE0182960E94F717AE016E
:104FA000445E5F4FBE01685D7F4FCE018C960E94CC
:104FB000E1058CA49DA4AEA4BFA420E030E04AE7A4
:104FC00054E4C501B4010E94C930811103C0812C91
:104FD000912C5401C8A4D9A4EAA4FBA420E030E099
:104FE0004AE754E4C701B6010E94C930811103C0E9
:104FF000C12CD12C7601B501A401CE0101960E94ED
:105000008C17BE016F5F7F4FCE0182960E9498166B
:10501000CE0101960E9416116CE2CE0182960E948A
:105020002917B701A601CE0101960E948C17BE0177
:105030006F5F7F4FCE0182960E94F916CE010196D6
:105040000E9416116EE6CE0182960E942917CE01AB
:1050500082960E94B6151D8E1C8E1F8E1E8E19A262
:1050600018A26AA17BA16115710531F04EA15FA163
:10507000CE014C960E94591747E165E073E0CE01DE
:1050800001960E94E519CE0101960E94FE01E09171
:10509000A70DF091A80D309739F08581882321F074
:1050A0008EE093E00E944716BE01645E7F4F8EE85B
:1050B0009DE00E944E030E9404118BE193E00E9448
:1050C0004716CE014C960E941611CE0101960E9401
:1050D000E91ACE0101960E94BF1F6C01CE01019614
:1050E0000E941611C6010E94581607E913E0F12C20
:1050F000E12CEC14FD040CF048C064E672E0CE0133
:105100004C960E94F717F8014081518162817381AA
:10511000CE0101960E948C17BE016F5F7F4FCE01BA
:105120004C960E949816CE0101960E9416116CE2D0
:10513000CE014C960E942917D80114964D915D918D
:105140006D917C911797CE0101960E948C17BE013C
:105150006F5F7F4FCE014C960E94F916CE010196EB
:105160000E9416116EE6CE014C960E942917CE01C0
:105170004C960E94B615CE014C960E941611BFEFB8
:10518000EB1AFB0A085F1F4FB4CFCE0182960E9434
:105190001611AE01405D5F4FBE016C5C7F4FCE01CA
:1051A000C8960E94E10548AC59AC6AAC7BAC20E0E3
:1051B00030E04AE754E4C301B201EBD7811103C0E8
:1051C000412C512C32018CA99DA9AEA9BFA98CAF4D
:1051D0009DAFAEAFBFAF20E030E04AE754E4BC0182
:1051E000CD01D7D7811104C01CAE1DAE1EAE1FAEBF
:1051F000A090DB09B090DC09C090DD09D090DE09F9
:10520000E090D709F090D8090091D9091091DA09F6
:105210002CAD3DAD4EAD5FADC301B2010E94511C3E
:1052200024966CAF7DAF8EAF9FAF2497A090DB0923
:10523000B090DC09C090DD09D090DE09E090D7097C
:10524000F090D8090091D9091091DA092CAD3DAD43
:105250004EAD5FADC301B2010E94301B8C010E94B4
:10526000201220E030E040E05FE324966CAD7DAD9D
:105270008EAD9FAD24978DD760E087FF7AC084E024
:105280000E94BD126AE273E086E79DE00E94A715C6
:1052900061E085E00E94BD126CE373E086E79DE06B
:1052A0000E94A71583E393E00E944716AE014E5D6E
:1052B0005F4FBE01685D7F4FCE018C960E94E10575
:1052C0008CA59DA5AEA5BFA524968CAF9DAFAEAF16
:1052D000BFAF249720E030E04AE754E4BC01CD01A1
:1052E00058D7811106C024961CAE1DAE1EAE1FAE4F
:1052F000249748A459A46AA47BA420E030E04AE79C
:1053000054E4C301B20145D7811103C0412C512C93
:10531000320164E672E0CE014C960E94F71741E03C
:1053200064E473E0CE0101960E94E519CE01019676
:105330000E94FE01E091A70DF091A80D309739F081
:105340008581882321F08FE493E00E9447168EE840
:105350009DE00E94410F1C01892B09F459C08EE881
:105360009DE00E94B010682FCE014C960E94291734
:10537000EECF81E00E94BD126FE872E0CE014C9644
:105380000E94F71724964CAD5DAD6EAD7FAD2497AE
:10539000CE0101960E948C17BE016F5F7F4FCE0138
:1053A0004C960E94F916CE0101960E941611BE017C
:1053B000645E7F4F86E79DE00E944E0365E972E0E0
:1053C000CE014C960E948317B801CE0101960E942F
:1053D000CC17BE016F5F7F4FCE014C960E94F9162D
:1053E000CE0101960E94161161E082E00E94BD127A
:1053F000BE01645E7F4F86E79DE00E944E03CE01B2
:105400004C960E94B615CE014C960E9416114ECFB6
:10541000CE014C960E94B6150E9404118EE593E0D1
:105420000E944716CE014C960E94E22026969FAF1E
:105430008EAF2697CE014C960E941611A090BB0607
:10544000B090BC06C090BD06D090BE06E090B706F6
:10545000F090B8060091B9061091BA06A301920126
:1054600024966CAD7DAD8EAD9FAD24970E94511CEE
:105470002A966CAF7DAF8EAF9FAF2A97A7EBB6E0B1
:10548000BDAFACAF912C812C2696EEADFFAD26972B
:105490008E169F0664F5ACADBDAD1496AD90BD9073
:1054A000CD90DC901797ED90FD900D911C91A3018C
:1054B000920124966CAD7DAD8EAD9FAD24970E9478
:1054C000511C9B01AC012A966CAD7DAD8EAD9FAD9C
:1054D0002A970E94BF3318160CF41401BFEF8B1AE1
:1054E0009B0AECADFDAD3896FDAFECAFCDCF2114EE
:1054F000310409F041C08091B7069091B806A0919F
:10550000B906B091BA068093DF099093E009A093A1
:10551000E109B093E2098091BB069091BC06A0918D
:10552000BD06B091BE068093E3099093E409A09371
:10553000E509B093E6098091BF069091C006A0915D
:10554000C106B091C2068093E7099093E809A09341
:10555000E909B093EA098091C3069091C406A0912D
:10556000C506B091C6068093EB099093EC09A09311
:10557000ED09B093EE0948C0F10133E0EE0FFF1FD3
:105580003A95E1F7E954F94F84809580A680B78079
:10559000C080D180E280F38026968EAD9FAD2697A5
:1055A00001978215930509F03BC1C092DF09D092A3
:1055B000E009E092E109F092E2098092E309909219
:1055C000E409A092E509B092E6092696EEADFFAD9A
:1055D000269723E0EE0FFF1F2A95E1F7E955F94FD3
:1055E00080819181A281B3818093E7099093E8093A
:1055F000A093E909B093EA09C092EB09D092EC09B3
:10560000E092ED09F092EE09AE014F5F5F4FBE01EF
:10561000645E7F4FCE0182960E94E1058AA09BA026
:10562000ACA0BDA020E030E04AE754E4C501B401DD
:10563000B0D5811103C0812C912C5401CC8CDD8C10
:10564000EE8CFF8C20E030E04AE754E4C701B6015D
:10565000A0D5811103C0C12CD12C76018091E7091E
:105660009091E809A091E909B091EA098CAF9DAF4A
:10567000AEAFBFAF8091EB099091EC09A091ED091D
:10568000B091EE0924968CAF9DAFAEAFBFAF24971B
:105690004090E3095090E4096090E5097090E609B4
:1056A0002CAD3DAD4EAD5FAD6091DF097091E0096D
:1056B0008091E1099091E209A1D6A7019601CED58A
:1056C0006B017C01A301920124966CAD7DAD8EAD82
:1056D0009FAD249793D6A5019401C0D59B01AC0141
:1056E000C701B6018CD66B017C01A30192012496FF
:1056F0006CAD7DAD8EAD9FAD2497B0D54B015C01F7
:10570000A30192016CAD7DAD8EAD9FADA7D59B0180
:10571000AC01C501B40172D69B01AC01C701B60151
:105720000E94BF3318160CF0F4C08091E7099091E5
:10573000E809A091E909B091EA098CAF9DAFAEAF3D
:10574000BFAF8090EB099090EC09A090ED09B0906C
:10575000EE09C090E309D090E409E090E509F090EB
:10576000E6099C01AD016091DF097091E00980912B
:10577000E1099091E20942D62C8D3D8D4E8D5F8DD1
:105780006DD52B013C01A7019601C501B40136D6A8
:105790002AA13BA14CA15DA161D59B01AC01C30134
:1057A000B2012DD62B013C01A7019601C501B40120
:1057B00055D54B015C01A70196016CAD7DAD8EAD59
:1057C0009FAD4CD59B01AC01C501B40117D66B014F
:1057D0007C010E9420120E94A20560E084E00E94E9
:1057E000BD126CE673E086E79DE00E94A7158CE68B
:1057F00093E00E9447160E94A20561E080E00E94AB
:10580000BD1265E773E086E79DE00E94A71585E776
:1058100093E00E944716A7019601C301B20180CF11
:10582000810193E0000F111F9A95E1F70154194F80
:10583000D8014D905D906D907C90A30192016CA574
:105840007DA58EA59FA5DAD56CAF7DAF8EAF9FAF3E
:10585000F801248135814681578168A579A58AA5FB
:105860009BA5CCD59B01AC016CAD7DAD8EAD9FAD44
:105870008FD620E030E0A9018CD487FF29C0F10148
:1058800083E0EE0FFF1F8A95E1F7E155F94F848120
:105890009581A681B7814081518162817381C092D7
:1058A000DF09D092E009E092E109F092E2098092EA
:1058B000E3099092E409A092E509B092E6094093C9
:1058C000E7095093E8096093E9097093EA094BCE20
:1058D000C092DF09D092E009E092E109F092E2097A
:1058E0008092E3099092E409A092E509B092E6095A
:1058F0004092E7095092E8096092E9097092EA093A
:105900004092EB095092EC096092ED097092EE0919
:105910007BCE0E9465043ACAEF920F931F93CF93F8
:10592000DF93E80134E047FD34E1042E000C550B11
:1059300057FF03C0519541955109E32E022F242FA3
:10594000AE0152D0CE01DF91CF911F910F91EF9018
:10595000089566277727C0C1FC0188279927E89416
:1059600021912032E9F3293010F02E30C8F32B3288
:1059700039F02D3231F4689403C015D0820F911D97
:10598000219120532A30C8F31EF4909581959F4FA2
:105990000895BB274A3031F4992322F4BDE2909553
:1059A00081959F4F09C07AE0979F902D879F802D0A
:1059B000910D11240895BB27FB015527AA27880FB5
:1059C000991FAA1FA41710F0A41B83955051B9F773
:1059D000A05DAA3308F0A95DA193009779F7B111F2
:1059E000B1931192CB01C5C38F929F92AF92BF9298
:1059F000CF92DF92EF92FF920F931F93CF93DF939B
:105A000000D000D000D0CDB7DEB76A01F22EB02EA4
:105A1000102FFBE3AF2EA01608F41BE31F5F012F2E
:105A200027E0AE014F5F5F4FACD2BC018981982F58
:105A30009970913009F44EC09BE2E1FC04C09E2DA8
:105A40009170E0FC49C05E2D5071E82FE87083FF33
:105A500055C084E0911101C083E0EF2DE81B8F1544
:105A600008F0E0E0D6018E2F20E25523C9F19923FA
:105A700029F0D6019C93C60101966C0196012D5F19
:105A80003F4FE2FE33C08EE4D6018C9391E4119631
:105A90009C93119712968C93D9018E2F90E28111CD
:105AA0002AC0E20FF32FF11D10828EEF9FEF29968F
:105AB0000FB6F894DEBF0FBECDBFDF91CF911F911F
:105AC0000F91FF90EF90DF90CF90BF90AF909F909D
:105AD0008F9008959DE2B7CF90E2B5CF2D9381507E
